:100000006AC384C383C382C381C380C37FC37EC3E7
:100010007DC37CC37BC37AC379C325C477C376C34E
:10002000B2C574C374C372C371C3A9C36FC36EC3B3
:100030006DC36CC30404000400000204000200004D
:100040000104000100000004800000800004200082
:1000500000208004008000004004004000000400F4
:10006000400000400200400000400100400000400D
:100070000000C00000400000600000408000400020
:100080000040400040000040040040040000020026
:10009000400200000100400100000000C00000809C
:1000A00000006000002080004080000040004040D0
:1000B00000000C00000800000A0000080000090011
:1000C0000008000008008008000008002008000068
:1000D0008800000800004800000800000C00000430
:1000E00000000A00000200000900000100000800F2
:1000F00080000080080020000020880000800000B0
:100100004800004000001400001000001200001021
:10011000000011000010000010008010000010000E
:10012000201000009000001000005000001000009F
:100130001400000400001200000200001100000181
:1001400000001000800000801000200000209000BF
:10015000008000005000004000002400002000004B
:10016000220000200000210000200000200080204C
:100170000000200020200000A000002000006000FF
:100180000020000024000004000022000002000003
:1001900021000001000020008000008020002000DD
:1001A0000020A0000080000060000040000004016A
:1001B0000000010002010000010001010000010037
:1001C000000180000100000120000100800100000A
:1001D00001004001000001000401000400000201D0
:1001E0000002000001010001000000018000008009
:1001F000000120000020800100800000400100403C
:1002000000000408000008000208000008000108BF
:100210000000080000088000080000082000080016
:1002200080080000080040080000080004080004DE
:1002300000000208000200000108000100000008A0
:10024000800000800008200000208008008000005E
:10025000400800400000040200000200020200000A
:100260000200010200000200000280000200000201
:100270002000020080020000020040020000020094
:10028000040200040000020200020000010200015A
:100290000000000280000080000220000020800298
:1002A00000800000400200400000440000400000C8
:1002B000420000400000410000400000400080403B
:1002C0000000400020400000C00000400000000A84
:1002D000000008004400000400004200000200008A
:1002E000410000010000400080000080400020002C
:1002F0000020C00000800000000A0000020084000E
:10030000008000008200008000008100008000006A
:1003100080008080000080002080000000090080B4
:1003200001000003000001008400000400008200BE
:1003300000020000810000010000800080000080B9
:1003400080002000002000090000080000030000D9
:100350000200040020000020020020000020010014
:10036000200000200000A00000202001002000004C
:1003700020080020000020020020000004002004CB
:100380000000020020020000010020010000000027
:10039000A0000080200100000100200800000800EB
:1003A00020020000020004008000008002008000A3
:1003B000008001008000008030000010000010016B
:1003C00000100000100800100000100200100000D3
:1003D000040080040000020080020000010080018F
:1003E0000000300000200000100100000100100893
:1003F00000000800100200000200050000010000DB
:100400000300000100001800000800002800000898
:1004100000000801000800000808000800000802A9
:1004200000080000050000040000030000020000B6
:100430001800001000002800002000000801000043
:100440000100080800000800080200000200060081
:100450000002000008004000004010004000004082
:100460002000400000400001400000400008400023
:1004700000400002400000400600000400000800A8
:100480004008000010004010000020004020000044
:100490000001400001000008400008000002400088
:1004A00002000004400004000804000004001004DE
:1004B0000000040020040000040000050000040007
:1004C000000C0000040000060000040000044000CE
:1004D0000040080400080000100400100000200480
:1004E00000200000000500000100000C00000800D2
:1004F000000600000200000000000000005F000095
:100500000007000700147F147F14242A7F2A122377
:100510001308646236495522500005030000001C90
:100520002241000041221C00082A1C2A0808083E1B
:100530000808005030000008080808080060600043
:100540000020100804023E5149453E00427F400011
:1005500042615149462141454B311814127F102701
:10056000454545393C4A4949300171090503364939
:10057000494936064949291E0036360000005636DC
:100580000000000814224114141414144122140809
:10059000000201510906324979413E7E1111117E56
:1005A0007F494949363E414141227F4141221C7FDA
:1005B000494949417F090901013E414151327F08C2
:1005C00008087F00417F41002040413F017F08141F
:1005D00022417F404040407F0204027F7F04081098
:1005E0007F3E4141413E7F090909063E4151215E5E
:1005F0007F09192946464949493101017F01013FD7
:100600004040403F1F2040201F7F2018207F631460
:100610000814630304780403615149454300007FD3
:100620004141020408102041417F00000402010200
:1006300004404040404000010204002054545478DB
:100640007F484444383844444420384444487F3840
:1006500054545418087E090102081454543C7F086D
:1006600004047800447D40002040443D00007F1099
:10067000284400417F40007C041804787C0804046E
:100680007838444444387C14141408081414187C32
:100690007C080404084854545420043F4440203C3F
:1006A0004040207C1C2040201C3C4030403C4428E2
:1006B0001028440C5050503C4464544C44000836BC
:1006C000410000007F0000004136080008082A1C95
:1006D00008081C2A080811241FBECFEFD4E0DEBF93
:1006E000CDBF13E0A0E0B1E0ECE6F6E102C005907A
:1006F0000D92A039B107D9F714E0A0E9B3E001C029
:100700001D92AC33B107E1F721D4AEC779CC1F926B
:100710000F920FB60F9211248F938091C600809391
:10072000350480913504809393038F910F900FBE11
:100730000F901F9018951092C50083E38093C4001A
:1007400088E98093C10008959091C00095FFFCCF87
:100750008093C600089507C03091C00035FFFCCFDC
:1007600001962093C600FC0120812223A9F7089559
:100770008091C00087FFFCCF8091C60008951F9232
:100780000F920FB60F9211248F938091790080936E
:1007900034048F910F900FBE0F901F90189500D0CA
:1007A00080E091E0EDB7FEB7928381835AD485E073
:1007B00091E0EDB7FEB79283818353D48CE091E052
:1007C000EDB7FEB7928381834CD482E191E0EDB71F
:1007D000FEB79283818345D40F900F900895DFDF99
:1007E00000D087E191E0EDB7FEB79283818339D4E1
:1007F00085E291E0EDB7FEB79283818332D480E346
:1008000091E0EDB7FEB7928381832BD484E491E02D
:10081000EDB7FEB79283818324D480E691E0EDB7F3
:10082000FEB7928381831DD48EE691E0EDB7FEB7CB
:100830009283818316D488E891E0EDB7FEB7928366
:1008400081830FD482EA91E0EDB7FEB79283818372
:1008500008D488EC91E0EDB7FEB79283818301D490
:100860000F900F9008951F920F920FB60F921124C0
:100870002F933F934F935F938F939F93AF93BF9328
:10088000EF93FF93DF93CF93CDB7DEB72A97DEBF09
:10089000CDBFE4E9F3E001900020E9F73197E45996
:1008A000F3409E012F5F3F4F46E853E08AE0DA01B4
:1008B0000D90AD01D9010D929D018150C1F780913C
:1008C000900390E0DE01A80FB91F11962C911197AB
:1008D00030E02E173F07C4F59C012B5F3F4FE29F8E
:1008E000C001E39F900DF29F900D1124409163038E
:1008F00020919103309192034423A1F02150304084
:10090000309392032093910344275527481B590B9A
:1009100024173507ECF48DE190E0909392038093D7
:10092000910316C02F5F3F4F3093920320939103A2
:100930002E3131056CF022273327281B390B3093D9
:1009400092032093910304C010929203109291039A
:10095000809161039091620390938500809384005D
:100960002A96DEBFCDBFCF91DF91FF91EF91BF916E
:10097000AF919F918F915F914F913F912F910F90E8
:100980000FBE0F901F9018952F923F924F925F923B
:100990006F927F928F929F92AF92BF92CF92DF928F
:1009A000EF92FF920F931F93DF93CF9300D000D06D
:1009B000CDB7DEB79C838B832B813C81D9010D9011
:1009C0000020E9F71197A21BB30BBA83A98377FD27
:1009D00005C080E090E020E030E010C00027112743
:1009E000061B170BC80165E070E01CD39C01C80111
:1009F00065E070E017D3862F60E070E0F82E8090FD
:100A0000900399244AE2A42EB12C98C08F2D90E037
:100A1000E981FA818E179F0710F080E206C00B81F2
:100A20001C81800F911FDC018C91B5E08B9F6001D0
:100A30001124E0E6FFEFCE0EDF1E6A9DA0016B9D44
:100A4000500D7A9D500D11244C5C5F4F8901A0E040
:100A5000B0E068C08601080F111DC8018A509B4F85
:100A6000FC014490CA0100E010E055243D01660EEF
:100A7000771E1201002E02C0359427940A94E2F7E3
:100A800020FE3AC0FDE16F16710408F03FC01AB8AD
:100A9000EAB0E7B8E7B0E4B81BB8EBB0E8B8E8B044
:100AA000E5B8FC01E490E4B81C010894211C311C59
:100AB000F101E490E7B832E0232E312C280E391EE4
:100AC000F101E490EAB8F3E02F2E312C280E391E04
:100AD000F101E490E5B8E4E02E2E312C280E391E09
:100AE000F101E490E8B835E0232E312C280E391EB0
:100AF000F101E490EBB80AC01AB8EAB0E7B8E7B081
:100B0000E4B81BB8EBB0E8B8E8B0E5B80F5F1F4F2A
:100B100006960730110509F0ACCF1196465D5F4F80
:100B200000E010E08A2F820F853008F493CF940103
:100B30002A0F311D620F731FF39498016D317105F7
:100B40000CF464CF1AB88AB187B987B184B91BB8DD
:100B50008BB188B988B185B90F900F900F900F9025
:100B6000CF91DF911F910F91FF90EF90DF90CF9089
:100B7000BF90AF909F908F907F906F905F904F90BD
:100B80003F902F9008951F920F920FB60F9211244D
:100B90002F933F934F935F936F937F938F939F9385
:100BA000AF93BF93EF93FF93609191037091920382
:100BB00084E993E0E9DEFF91EF91BF91AF919F91BE
:100BC0008F917F916F915F914F913F912F910F90F6
:100BD0000FBE0F901F9018952F923F924F925F92E9
:100BE0006F927F928F929F92AF92BF92CF92DF923D
:100BF000EF92FF920F931F93DF93CF93CDB7DEB7A2
:100C0000C054D0400FB6F894DEBF0FBECDBF1092D7
:100C100093038E010F5F1F4FAFE9CA2EA2E0DA2EB9
:100C2000FBE48F2EF3E09F2EE8E46E2EE3E07E2EB1
:100C300075EE472E71E0572E64E9E62E63E0F62E3E
:100C4000809193038823E1F3809193039091C000F6
:100C500095FFFCCF8093C60080E4D8011D928A9551
:100C6000E9F7809193038C3609F494C08D3650F4E3
:100C7000833609F485C0843609F4ACC0823609F0A5
:100C800045C1D1C0843739F0873709F4B0C0833704
:100C900009F03CC146C083DD00D0EDB7FEB75282FB
:100CA0004182DFD11092930380EAD7011D928A9589
:100CB000E9F7109292031092910380E090E00F9078
:100CC0000F90209193032223E1F32091930330911D
:100CD000C00035FFFCCF2093C600209193032D3038
:100CE000E1F020919303283041F40197FC01EC5688
:100CF000FC4F108210929303E4CF20919303FC01E8
:100D0000EC56FC4F2083019610929303813A910593
:100D1000C0F2C80166E172E099D1C8016FE272E0E9
:100D20002DC03DDD00D028E432E0EDB7FEB73283C0
:100D3000218397D1109293030F900F90809193038A
:100D40008823E1F380919303803388F080919303AB
:100D50008A3368F4E0919303F0E0EE0FFF1FEC5F3D
:100D6000FC4F808191819093620380936103809115
:100D700093038D30B1F6C8016BE772E067D1C6C04E
:100D8000C8016BE872E062D180EAD7011D928A95B2
:100D9000E9F7BCC004DD00D0EDB7FEB7D282C18256
:100DA00060D1109293030F900F908091930388234A
:100DB000E1F380919303803368F3809193038A3346
:100DC00048F780919303805380939003C80166EDA8
:100DD00072E0D4CFC80162EF72E038D180E0909128
:100DE0006303992309F481E0809363038FC084E94E
:100DF00093E064E070E040EA50E048D36091610322
:100E00007091620380E090E03DD382E090E06091D9
:100E1000630326D383E090E06091900321D3C8015F
:100E200069E073E0ABCF10929303B9DC00D0EBE242
:100E3000F3E0ADB7BEB71296FC93EE93119711D1C4
:100E400080917A00886480937A000F900F9080914F
:100E50009303882309F05AC080917A0088648093B4
:100E60007A0080913404282E33242A143B0479F329
:100E7000982F9F57933010F481E422C0982F9959EE
:100E8000943010F482E41CC0982F9D54953010F4D7
:100E900083E416C0982F9753943010F484E410C064
:100EA000982F9251953010F485E40AC0982F9952EA
:100EB000963010F486E404C08E5B853040F687E4FB
:100EC00000D000D0EDB7FEB7319624E433E0ADB7E3
:100ED000BEB712963C932E93119782831382C1D092
:100EE0000F900F900F900F9080917A0088648093FC
:100EF0007A0038E03A95F1F700C0809134048B3FD6
:100F000098F38EE390E0BFD05101A1CF68DC8981D6
:100F1000882379F000D0ADB7BEB712967C926E925E
:100F200011979FD0EDB7FEB7128301839AD00F902F
:100F30000F9000D0ADB7BEB712969C928E921197CB
:100F400090D0109293030F900F907ACE1AB88AB176
:100F500087B987B184B91BB88BB188B988B185B915
:100F6000EEE6F0E080818160808314BC85B583600B
:100F700085BD16BCEFE6F0E0808181608083109231
:100F80008000E1E8F0E0808183608083109282003D
:100F9000109285001092840082E08AB91BB886E620
:100FA00080937C00EAE7F0E080818868808310927B
:100FB000C50083E38093C40088E98093C10088E77B
:100FC00093E0909339048093380409DC00D08BE4DB
:100FD00093E0EDB7FEB79283818343D084E993E039
:100FE00020EAFC0111922A95E9F70F900F9064E036
:100FF00070E040EA50E017D280E090E02CD290936D
:1010000062038093610382E090E01DD280936303CA
:1010100083E090E018D2809390037894DDDD80E047
:1010200090E00895AA1BBB1B51E107C0AA1FBB1F7C
:10103000A617B70710F0A61BB70B881F991F5A9564
:10104000A9F780959095BC01CD010895FB01DC01C5
:101050000D900020E9F7119701900D920020E1F723
:101060000895A0E0B0E0E6E3F8E0D7C2FE013596CF
:10107000619171918091380490913904AF0109D048
:101080002096E2E0E6C260913804709139042BD2D8
:101090000895ACE0B0E0EEE4F8E0B0C26C012B01E2
:1010A0008A01FC0117821682838181FD03C02FEF24
:1010B0003FEFB5C14E010894811C911C6FE3362EA1
:1010C000F6019381F20193FD859193FF81912F01A8
:1010D000882309F4A1C1853239F493FD859193FFEA
:1010E00081912F01853221F490E0B601FCD1E8CF47
:1010F000EE24FF2420E02032B0F48B3269F08C32F1
:1011000028F4803251F0833271F40BC08D3239F003
:10111000803349F421602CC02260246029C02860FB
:1011200027C0206125C027FD2CC0382F30533A300E
:1011300098F426FF08C08E2D880FE82EEE0CEE0CDA
:10114000E80EE30E15C08F2D880FF82EFF0CFF0C54
:10115000F80EF30E20620CC08E3221F426FD5CC125
:10116000206406C08C3611F4206802C0883649F429
:10117000F20193FD859193FF81912F01882309F05E
:10118000BACF982F9554933018F09052933020F4A2
:101190000C5F1F4F39820DC0833631F0833771F0F9
:1011A000833509F054C01DC0F801808189830E5F2A
:1011B0001F4F540151E0652E712C11C0F801A08021
:1011C000B18026FD03C06FEF7FEF02C06E2D70E08F
:1011D0000E5F1F4FC5012C877BD13C012C852F77DB
:1011E00012C0F801A080B18026FD03C06FEF7FEF31
:1011F00002C06E2D70E00E5F1F4FC5012C875DD1C0
:101200003C012C85206823FF08C01DC080E290E0CF
:10121000B6012C8768D1FA942C858F2D90E0681642
:101220007906A0F310C0F50127FD859127FF819174
:101230005F0190E0B6012C8756D12C85F110FA940D
:101240000894610871086114710469F7E2C084367A
:1012500011F0893649F527FF08C0F80160817181D6
:10126000828193810C5F1F4F0AC0F8014081518138
:10127000BA01882777FD8095982F0E5F1F4F4FE6A4
:10128000B42EB22297FF09C0909580957095619514
:101290007F4F8F4F9F4FF0E8BF2AA4012AE030E034
:1012A0004ED1782E781842C0853731F43FEEB32EF8
:1012B000B2222AE030E023C099EFB92EB2228F3655
:1012C00061F0803720F4883509F0A6C012C080375D
:1012D00039F0883709F0A0C005C028E030E00FC021
:1012E00020E1B22AB4FE02C084E0B82A20E130E056
:1012F00006C0B4FE02C0E6E0BE2A20E132E0B7FE3E
:1013000008C0F80160817181828193810C5F1F4F59
:1013100007C0F8016081718180E090E00E5F1F4F8F
:10132000A4010DD1782E7818FFE7BF22B6FE0BC0BE
:101330002EEFB2227E1438F4B4FE07C0B2FC05C012
:101340008FEEB82202C0A72C01C0AE2C8B2DB4FEAC
:101350000DC0FE01E70DF11D9081903319F4E9EE07
:10136000BE2207C0A394B2FE04C002C0867809F072
:10137000A3946B2CB3FC13C0B0FE0EC0AF1410F0DE
:10138000E72C0AC0E72CEF0CEA18AF2C05C080E26E
:1013900090E0B601A8D0A394AF14C8F304C0AF1472
:1013A00010F4FA1801C0FF2464FE0EC080E390E040
:1013B000B60199D062FE1BC061FC03C088E790E0D3
:1013C0000EC088E590E00BC0862D867881F061FE26
:1013D00002C08BE201C080E2B7FC8DE290E0B60172
:1013E00082D005C080E390E0B6017DD0EA947E14FF
:1013F000C8F37A94F401E70DF11D808190E0B60105
:1014000072D07720B1F705C080E290E0B6016BD0D2
:10141000FA94FF20C9F754CEF60126813781C9011D
:101420002C96E1E107C1DC01CB01FC01F999FECF6B
:1014300006C0F2BDE1BDF89A319600B40D9241505C
:101440005040B8F70895F999FECF92BD81BDF89A42
:10145000992780B50895A8E1B0E042E050E0E5CFDB
:10146000262FF999FECF92BD81BDF89A019700B45D
:10147000021639F01FBA20BD0FB6F894FA9AF99AFD
:101480000FBE08950196272FECDFEACFDC01CB01D8
:1014900002C02D9105D041505040D8F70895262F15
:1014A000F999FECF1FBA92BD81BD20BD0FB6F89449
:1014B000FA9AF99A0FBE01960895FC0105906150C1
:1014C00070400110D8F7809590958E0F9F1F08955A
:1014D000FC016150704001900110D8F78095909503
:1014E0008E0F9F1F08950F931F93CF93DF938C014F
:1014F000EB018B8181FF1BC082FF0DC02E813F81DC
:101500008C819D812817390764F4E881F981019362
:10151000F983E88306C0E885F985802F099500974F
:1015200031F48E819F8101969F838E8302C00FEFDD
:101530001FEFC801DF91CF911F910F910895FA011C
:10154000AA27283051F1203181F1E8946F936E7F02
:101550006E5F7F4F8F4F9F4FAF4FB1E03ED0B4E0F3
:101560003CD0670F781F891F9A1FA11D680F791F34
:101570008A1F911DA11D6A0F711D811D911DA11D45
:1015800020D009F468943F912AE0269F1124301955
:10159000305D3193DEF6CF010895462F4770405DF0
:1015A0004193B3E00FD0C9F7F6CF462F4F70405D9F
:1015B0004A3318F0495D31FD4052419302D0A9F7FA
:1015C000EACFB4E0A6959795879577956795BA95F4
:1015D000C9F700976105710508959B01AC010A2EBA
:1015E00006945795479537952795BA95C9F7620F91
:1015F000731F841F951FA01D08952F923F924F9235
:101600005F926F927F928F929F92AF92BF92CF9292
:10161000DF92EF92FF920F931F93CF93DF93CDB79B
:10162000DEB7CA1BDB0B0FB6F894DEBF0FBECDBF13
:1016300009942A88398848885F846E847D848C84E4
:101640009B84AA84B984C884DF80EE80FD800C81ED
:101650001B81AA81B981CE0FD11D0FB6F894DEBFD0
:0C1660000FBECDBFED010895F894FFCF40
:10166C001B5B324A001B5B303B3048001B5B31304C
:10167C0042001B5B35410057656C636F6D65202123
:10168C000A0D0A0D00416374696F6E203A0A0D0051
:10169C002D205B745D2053657420746578742E2E38
:1016AC002E0A0D002D205B735D205365742073632F
:1016BC00726F6C6C2073706565642E2E2E0A0D0093
:1016CC002D205B635D20436C6561720A0D002D203B
:1016DC005B645D2052657665727365206469726522
:1016EC006374696F6E0A0D002D205B6C5D204C6578
:1016FC00747465722073706163696E672E2E2E0A86
:10170C000D002D205B775D20577269746520636F27
:10171C006E66696775726174696F6E20746F2045AF
:10172C004550524F4D0A0D002D205B625D205265D5
:10173C00616420627574746F6E2076616C75652EB1
:10174C002E2E0A0D005479706520796F7572206DFC
:10175C0065737361676520616E6420707265737365
:10176C00205B454E5445525D20746F20657869743A
:10177C00203A200A0D004D6573736167652073690B
:10178C007A65207265616368656420210A0D004DDD
:10179C0065737361676520736176656420696E207B
:1017AC0052414D20210A0D00456E74657220612056
:1017BC007370656564206265747765656E20302092
:1017CC00746F20392C205B454E5445525D20746F4C
:1017DC002065786974203A200A0D005370656564A1
:1017EC0020736176656420210A0D004D6573736169
:1017FC00676520636C656172656420210A0D004584
:10180C006E746572206368617261637465722073B3
:10181C00706163696E6720283020746F2039292C21
:10182C00205B454E5445525D20746F206578697479
:10183C00203A200A0D00436861726163746572205E
:10184C0073706163696E6720736176656420210A29
:10185C000D00446972656374696F6E2073776974E7
:10186C006368656420210A0D00436F6E66696775B5
:10187C00726174696F6E20736176656420696E2085
:10188C00454550524F4D20210A0D00526561646947
:10189C006E6720627574746F6E2076616C7565204E
:1018AC00210A0D003C2563000A0D000A0D547970C5
:1018BC006520796F75722063686F696365203A20C3
:1018CC0000C8000100000032004B007D009600AF04
:1018DC0000C800E100F000FA000000020000000067
:1018EC00A403000000000505040403030303020223
:00000001FF
