:100000006AC384C383C382C381C380C37FC37EC3E7
:100010007DC32BC67BC37AC379C392C577C376C32E
:10002000B2C374C374C372C371C3C0C46FC36EC39D
:100030006DC36CC30404000400000204000200004D
:100040000104000100000004800000800004200082
:1000500000208004008000004004004000000400F4
:10006000400000400200400000400100400000400D
:100070000000C00000400000600000408000400020
:100080000040400040000040040040040000020026
:10009000400200000100400100000000C00000809C
:1000A00000006000002080004080000040004040D0
:1000B00000000C00000800000A0000080000090011
:1000C0000008000008008008000008002008000068
:1000D0008800000800004800000800000C00000430
:1000E00000000A00000200000900000100000800F2
:1000F00080000080080020000020880000800000B0
:100100004800004000001400001000001200001021
:10011000000011000010000010008010000010000E
:10012000201000009000001000005000001000009F
:100130001400000400001200000200001100000181
:1001400000001000800000801000200000209000BF
:10015000008000005000004000002400002000004B
:10016000220000200000210000200000200080204C
:100170000000200020200000A000002000006000FF
:100180000020000024000004000022000002000003
:1001900021000001000020008000008020002000DD
:1001A0000020A0000080000060000040000004016A
:1001B0000000010002010000010001010000010037
:1001C000000180000100000120000100800100000A
:1001D00001004001000001000401000400000201D0
:1001E0000002000001010001000000018000008009
:1001F000000120000020800100800000400100403C
:1002000000000408000008000208000008000108BF
:100210000000080000088000080000082000080016
:1002200080080000080040080000080004080004DE
:1002300000000208000200000108000100000008A0
:10024000800000800008200000208008008000005E
:10025000400800400000040200000200020200000A
:100260000200010200000200000280000200000201
:100270002000020080020000020040020000020094
:10028000040200040000020200020000010200015A
:100290000000000280000080000220000020800298
:1002A00000800000400200400000440000400000C8
:1002B000420000400000410000400000400080403B
:1002C0000000400020400000C00000400000000A84
:1002D000000008004400000400004200000200008A
:1002E000410000010000400080000080400020002C
:1002F0000020C00000800000000A0000020084000E
:10030000008000008200008000008100008000006A
:1003100080008080000080002080000000090080B4
:1003200001000003000001008400000400008200BE
:1003300000020000810000010000800080000080B9
:1003400080002000002000090000080000030000D9
:100350000200040020000020020020000020010014
:10036000200000200000A00000202001002000004C
:1003700020080020000020020020000004002004CB
:100380000000020020020000010020010000000027
:10039000A0000080200100000100200800000800EB
:1003A00020020000020004008000008002008000A3
:1003B000008001008000008030000010000010016B
:1003C00000100000100800100000100200100000D3
:1003D000040080040000020080020000010080018F
:1003E0000000300000200000100100000100100893
:1003F00000000800100200000200050000010000DB
:100400000300000100001800000800002800000898
:1004100000000801000800000808000800000802A9
:1004200000080000050000040000030000020000B6
:100430001800001000002800002000000801000043
:100440000100080800000800080200000200060081
:100450000002000008004000004010004000004082
:100460002000400000400001400000400008400023
:1004700000400002400000400600000400000800A8
:100480004008000010004010000020004020000044
:100490000001400001000008400008000002400088
:1004A00002000004400004000804000004001004DE
:1004B0000000040020040000040000050000040007
:1004C000000C0000040000060000040000044000CE
:1004D0000040080400080000100400100000200480
:1004E00000200000000500000100000C00000800D2
:1004F000000600000200000000000000005F000095
:100500000007000700147F147F14242A7F2A122377
:100510001308646236495522500005030000001C90
:100520002241000041221C00082A1C2A0808083E1B
:100530000808005030000008080808080060600043
:100540000020100804023E5149453E00427F400011
:1005500042615149462141454B311814127F102701
:10056000454545393C4A4949300171090503364939
:10057000494936064949291E0036360000005636DC
:100580000000000814224114141414144122140809
:10059000000201510906324979413E7E1111117E56
:1005A0007F494949363E414141227F4141221C7FDA
:1005B000494949417F090901013E414151327F08C2
:1005C00008087F00417F41002040413F017F08141F
:1005D00022417F404040407F0204027F7F04081098
:1005E0007F3E4141413E7F090909063E4151215E5E
:1005F0007F09192946464949493101017F01013FD7
:100600004040403F1F2040201F7F2018207F631460
:100610000814630304780403615149454300007FD3
:100620004141020408102041417F00000402010200
:1006300004404040404000010204002054545478DB
:100640007F484444383844444420384444487F3840
:1006500054545418087E090102081454543C7F086D
:1006600004047800447D40002040443D00007F1099
:10067000284400417F40007C041804787C0804046E
:100680007838444444387C14141408081414187C32
:100690007C080404084854545420043F4440203C3F
:1006A0004040207C1C2040201C3C4030403C4428E2
:1006B0001028440C5050503C4464544C44000836BC
:1006C000410000007F0000004136080008082A1C95
:1006D00008081C2A080811241FBECFEFD4E0DEBF93
:1006E000CDBF13E0A0E0B1E0EAE2F9E102C005907D
:1006F0000D92A43EB107D9F714E0A4EEB3E001C017
:100700001D92A934B107E1F7A2D50DC979CC1F928A
:100710000F920FB60F9211248F938091C600809391
:10072000F0031092EE031092ED038F910F900FBE25
:100730000F901F9018951092C50083E38093C4001A
:100740001AB81BB882E08AB988E98093C10008957D
:100750009091C00095FFFCCF8093C600089507C01C
:100760003091C00035FFFCCF01962093C600FC01FC
:1007700020812223A9F708958091C00087FFFCCF34
:100780008091C60008951F920F920FB60F92112408
:100790004F925F926F927F928F929F92AF92BF9291
:1007A000CF92DF92EF92FF920F931F932F933F937D
:1007B0004F935F936F937F938F939F93AF93BF9369
:1007C000CF93DF93EF93FF938091E5039091E6033E
:1007D00097FD05C040E050E020E030E012C0EE2779
:1007E000FF27E81BF90BCF0165E070E083D59C0182
:1007F000CF0165E070E07ED5862F972FAC0180E0B9
:1008000090E0142FA090E403BB244AE2C42ED12C24
:100810009EC06091E7037091E803412F50E04617B6
:10082000570714F040E204C04F505C4FFA0140817A
:10083000F5E04F9FE0011124C05AD0408C9DA001EB
:100840008D9D500D9C9D500D11244C5C5F4FF90106
:1008500060E070E060C037010A2E02C075946794B2
:100860000A94E2F760FE3EC00DE18016910408F0A4
:1008700036C01AB80AB107B907B104B91BB80BB131
:1008800008B908B105B9F201049104B9320108941C
:10089000611C711CF301049107B902E0602E712CF8
:1008A000640C751CF3010491007E0AB9F3E06F2E0D
:1008B000712C640C751CF301049105B9E4E06E2EF3
:1008C000712C640C751CF301049108B935E0632E9A
:1008D000712C640C751CF3010491007E0BB90000AF
:1008E00000000AC01AB80AB107B907B104B91BB8A9
:1008F0000BB108B908B105B91196E6E0F0E04E0E6B
:100900005F1EA730B10509F0A6CF6F5F7F4F465D30
:100910005F4FE0E0F0E0B62FB20FB53088F47E0113
:10092000EB0EF11CE6EFF4E0EE0EFF1E2A01A0E054
:10093000B0E0F701E490FF244B01880E991E8BCFA5
:100940009501260F311D820F931F1F5F9F018D316F
:1009500091050CF45ECF1AB88AB187B987B184B912
:100960001BB88BB188B988B185B9FF91EF91DF9140
:10097000CF91BF91AF919F918F917F916F915F9137
:100980004F913F912F911F910F91FF90EF90DF902A
:10099000CF90BF90AF909F908F907F906F905F901F
:1009A0004F900F900FBE0F901F9018951F920F92AF
:1009B0000FB60F9211248F93809179008093420497
:1009C0008F910F900FBE0F901F901895CF93DF93CC
:1009D000853008F080E091E5899FE0011124CE0187
:1009E0000A966AEAA0D6BE01655F7F4F81EF93E069
:1009F00040E550E0AAD6DF91CF910895EF92FF92A3
:100A00000F931F93CF93DF93853008F080E001E5CB
:100A1000809F80011124E8012A96CE017CD68A3A73
:100A200039F0CE016AEA7FD6C8010B9660E07BD62A
:100A3000BE016F5F7F4F81EF93E040E550E05BD6F2
:100A4000DF91CF911F910F91FF90EF9008958091CA
:100A5000EC03D4DFE1EFF3E001900020E9F73197F8
:100A6000E15FF340F093E803E093E70380E090E078
:100A700052D68093A203893038F089E08093A20394
:100A800080E090E069E04FD681E090E044D680932A
:100A9000A303893038F089E08093A30381E090E0DC
:100AA00069E041D682E090E036D68093E403893055
:100AB00038F089E08093E40382E090E069E033D687
:100AC00083E090E028D68093EA03893038F089E00B
:100AD0008093EA0383E090E069E025D684E090E02B
:100AE0001AD68093EF03893038F089E08093EF03C2
:100AF00084E090E069E017D608951F93CF93DF93C9
:100B000011E58091EC038F5F8093EC03843010F04B
:100B10001092EC038091EC03819FE0011124CE013F
:100B20000A96F9D58A3A69F7BE01655F7F4F81EF72
:100B300093E040E550E0DFD5DF91CF911F9108951C
:100B40001F920F920FB60F9211242F933F934F9342
:100B50005F936F937F938F939F93AF93BF93EF9325
:100B6000FF93DF93CF93CDB7DEB72A97DEBFCDBF1C
:100B70002091E7033091E803DE011196EAEDF3E0FE
:100B80008AE001900D928150E1F78091E40390E0BA
:100B9000FE01E80FF91F418150E04217530724F08E
:100BA0004091EB034423E9F1AC014B5F5F4F429F5F
:100BB000C001439F900D529F900D11244091A303BB
:100BC0002091E5033091E6034423A1F02150304009
:100BD0003093E6032093E50344275527481B590B20
:100BE0002417350714F58DE190E09093E603809388
:100BF000E50311C02F5F3F4F3093E6032093E503D9
:100C00002E31310594F022273327281B390B3093DE
:100C1000E6032093E5038091EB03882331F06DDF39
:100C200004C01092E6031092E503E091A203F0E005
:100C3000EC55FC4F808180938500109284002A96A9
:100C4000DEBFCDBFCF91DF91FF91EF91BF91AF910B
:100C50009F918F917F916F915F914F913F912F91D4
:100C60000F900FBE0F901F9018951F920F920FB606
:100C70000F9211242F933F934F935F936F937F9322
:100C80008F939F93AF93BF93CF93DF93EF93FF9394
:100C9000E091EF03EE2371F18091ED039091EE036B
:100CA000F0E0EE0FFF1FE854FC4F20813181AC01D2
:100CB0004F5F5F4F5093EE034093ED03821793070E
:100CC000C8F0C1EFD3E081E5FE0111928A95E9F702
:100CD000CE0160E071E022D309900020E9F721976E
:100CE000C15FD340D093E803C093E7031092EE03B3
:100CF0001092ED03FF91EF91DF91CF91BF91AF91F2
:100D00009F918F917F916F915F914F913F912F9123
:100D10000F900FBE0F901F90189500D08AE191E0C0
:100D2000EDB7FEB79283818304D38FE191E0EDB7F5
:100D3000FEB792838183FDD20F900F900895EDDF6F
:100D40008DB79EB70C970FB6F8949EBF0FBE8DBFA0
:100D5000EDB7FEB7319686E291E0ADB7BEB7129619
:100D60009C938E9311978091EC03828313828091E0
:100D7000A203848315828091A303868317828091C6
:100D8000E403808711868091EB0382871386D1D29A
:100D9000EDB7FEB73A960FB6F894FEBF0FBEEDBFA3
:100DA0008FE491E092838183C4D28AE591E0ADB76C
:100DB000BEB712969C938E931197BBD280E791E0B9
:100DC000EDB7FEB792838183B4D280E891E0ADB7EE
:100DD000BEB712969C938E931197ABD28DE891E09B
:100DE000EDB7FEB792838183A4D288EA91E0ADB7D4
:100DF000BEB712969C938E9311979BD281EC91E093
:100E0000EDB7FEB79283818394D28AED91E0ADB7BE
:100E1000BEB712969C938E9311978BD28CEE91E075
:100E2000EDB7FEB79283818384D287E092E0ADB7BD
:100E3000BEB712969C938E9311977BD20F900F9012
:100E400008952F923F924F925F926F927F928F926E
:100E50009F92AF92BF92CF92DF92EF92FF920F9349
:100E60001F93DF93CF93CDB7DEB7C054D0400FB6FA
:100E7000F894DEBF0FBECDBF81E08093F00300E0A9
:100E80007E010894E11CF11CF1E98F2EF3E09F2E06
:100E9000EEE8AE2EE3E0BE2E71EFC72E73E0D72E44
:100EA0006EE8462E62E0562E8091F0038823E1F32F
:100EB0008091F0039091C00095FFFCCF8093C60015
:100EC000D701E0E41D92EA95E9F78091F0038336BB
:100ED00009F4D7C0843668F4803308F496C18433AB
:100EE00008F48FC0813609F49FC0823609F08DC1A5
:100EF00019C1833709F4A1C0843738F4843609F462
:100F0000ECC08C3609F081C1C6C0843721F0873728
:100F100009F07BC1EFC001DF00D0EDE1F2E0ADB739
:100F2000BEB71296FC93EE93119703D21092F00382
:100F300081E5D6011D928A95E9F71092E603109299
:100F4000E5031091EB030F900F90112311F4102F74
:100F500002C01092EB031092E8031092E703809115
:100F6000F0038823E1F38091F0039091C00095FF96
:100F7000FCCF8093C6008091F0038D3099F1809171
:100F8000F003883099F48091E7039091E80301978A
:100F90009093E8038093E703E091E703F091E8037F
:100FA000EF50FC4F10821092F003D9CF8091E703ED
:100FB0009091E8032091F003FC01EF50FC4F208357
:100FC00001969093E8038093E7031092F0038091D9
:100FD000E7039091E8038035910509F6C7016EE4B7
:100FE00072E09CD18091EB03882321F08091EC0387
:100FF00090E0ECDC1093EB03C70167E672E08ED162
:1010000005C18091EC0390E0E1DC8091F003805316
:101010008093EC0390E0F2DC1092E6031092E5037B
:10102000C70169E772E07CC080E09091EB039923EF
:1010300009F481E08093EB03E8C06FDE00D0EDB7E8
:10104000FEB75282418275D11092F0030F900F903B
:101050008091F0038823E1F38091F003803348F01E
:101060008091F0038A3328F48091F00380538093B9
:10107000A2038091F0038D3001F7C70161EC72E0AB
:101080004FC0C70161ED72E049D181E5D6011D92E3
:101090008A95E9F7BAC041DE00D025EE32E0EDB71F
:1010A000FEB73283218345D11092F0030F900F9049
:1010B0008091F0038823E1F38091F003803358F3AB
:1010C0008091F0038A3338F78091F0038053809346
:1010D000E403C7016CE173E023C0C70168E373E078
:1010E0001DD180E09091A303992309F481E08093BE
:1010F000A3038BC08091EC0390E068DC80E090E07B
:101100006091A20310D381E090E06091A3030BD320
:1011100082E090E06091E40306D3C7016FE473E0DE
:10112000FDD073C01092F003F8DD00D0E1E7F3E0EA
:10113000ADB7BEB71296FC93EE931197FAD080919B
:101140007A00886480937A000F900F908091F0036A
:10115000882309F05AC080917A00886480937A00CD
:1011600080914204282E33242614370479F3982FD3
:101170009F57933010F481E422C0982F99599430EE
:1011800010F482E41CC0982F9D54953010F483E431
:1011900016C0982F9753943010F484E410C0982F01
:1011A0009251953010F485E40AC0982F99529630E8
:1011B00010F486E404C08E5B853040F687E400D0EE
:1011C00000D0EDB7FEB731962AE833E0ADB7BEB731
:1011D00012963C932E93119782831382AAD00F907C
:1011E0000F900F900F9080917A00886480937A001E
:1011F00038E03A95F1F700C0809142048B3F98F3B4
:101200008EE390E0A8D03101A1CF102F98DD898125
:10121000882379F000D0ADB7BEB71296BC92AE92DB
:10122000119787D0EDB7FEB7F282E18282D00F909E
:101230000F9000D0ADB7BEB712969C928E921197C8
:1012400078D01092F003012F0F900F902DCE1AB886
:101250008AB187B987B184B91BB88BB188B988B115
:1012600085B9EEE6F0E080818160808314BC85B5AD
:10127000836085BD16BCEFE6F0E0808181608083ED
:1012800010928000E1E8F0E080818360808310921A
:1012900082001092850010928400E0E7F0E08081E7
:1012A00080831092B000E1EBF0E080818760808362
:1012B0001092B20086E680937C00EAE7F0E080813D
:1012C0008868808338DA8CEC93E0909346048093AE
:1012D000450481E5E1EFF3E0DF011D928A95E9F72E
:1012E0001092EC03B4DB78941AB81BB8AADD80E046
:1012F00090E00895AA1BBB1B51E107C0AA1FBB1FAA
:10130000A617B70710F0A61BB70B881F991F5A9591
:10131000A9F780959095BC01CD010895FB01DC01F2
:101320000D900020E9F7119701900D920020E1F750
:101330000895A0E0B0E0EEE9F9E0CEC2FE013596F6
:10134000619171918091450490914604AF0109D05B
:101350002096E2E0DDC2609145047091460422D2FD
:101360000895ACE0B0E0E6EBF9E0A7C26C012B0118
:101370008A01FC0117821682838181FD03C02FEF51
:101380003FEFB5C14E010894811C911C6FE3362ECE
:10139000F6019381F20193FD859193FF81912F01D5
:1013A000882309F4A1C1853239F493FD859193FF17
:1013B00081912F01853221F490E0B601F3D1E8CF7D
:1013C000EE24FF2420E02032B0F48B3269F08C321E
:1013D00028F4803251F0833271F40BC08D3239F031
:1013E000803349F421602CC02260246029C0286029
:1013F00027C0206125C027FD2CC0382F30533A303C
:1014000098F426FF08C08E2D880FE82EEE0CEE0C07
:10141000E80EE30E15C08F2D880FF82EFF0CFF0C81
:10142000F80EF30E20620CC08E3221F426FD5CC152
:10143000206406C08C3611F4206802C0883649F456
:10144000F20193FD859193FF81912F01882309F08B
:10145000BACF982F9554933018F09052933020F4CF
:101460000C5F1F4F39820DC0833631F0833771F026
:10147000833509F054C01DC0F801808189830E5F57
:101480001F4F540151E0652E712C11C0F801A0804E
:10149000B18026FD03C06FEF7FEF02C06E2D70E0BC
:1014A0000E5F1F4FC5012C8772D13C012C852F7711
:1014B00012C0F801A080B18026FD03C06FEF7FEF5E
:1014C00002C06E2D70E00E5F1F4FC5012C8754D1F6
:1014D0003C012C85206823FF08C01DC080E290E0FD
:1014E000B6012C875FD1FA942C858F2D90E0681679
:1014F0007906A0F310C0F50127FD859127FF8191A2
:101500005F0190E0B6012C874DD12C85F110FA9443
:101510000894610871086114710469F7E2C08436A7
:1015200011F0893649F527FF08C0F8016081718103
:10153000828193810C5F1F4F0AC0F8014081518165
:10154000BA01882777FD8095982F0E5F1F4F4FE6D1
:10155000B42EB22297FF09C0909580957095619541
:101560007F4F8F4F9F4FF0E8BF2AA4012AE030E061
:1015700045D1782E781842C0853731F43FEEB32E2E
:10158000B2222AE030E023C099EFB92EB2228F3682
:1015900061F0803720F4883509F0A6C012C080378A
:1015A00039F0883709F0A0C005C028E030E00FC04E
:1015B00020E1B22AB4FE02C084E0B82A20E130E083
:1015C00006C0B4FE02C0E6E0BE2A20E132E0B7FE6B
:1015D00008C0F80160817181828193810C5F1F4F87
:1015E00007C0F8016081718180E090E00E5F1F4FBD
:1015F000A40104D1782E7818FFE7BF22B6FE0BC0F5
:101600002EEFB2227E1438F4B4FE07C0B2FC05C03F
:101610008FEEB82202C0A72C01C0AE2C8B2DB4FED9
:101620000DC0FE01E70DF11D9081903319F4E9EE34
:10163000BE2207C0A394B2FE04C002C0867809F09F
:10164000A3946B2CB3FC13C0B0FE0EC0AF1410F00B
:10165000E72C0AC0E72CEF0CEA18AF2C05C080E29B
:1016600090E0B6019FD0A394AF14C8F304C0AF14A8
:1016700010F4FA1801C0FF2464FE0EC080E390E06D
:10168000B60190D062FE1BC061FC03C088E790E009
:101690000EC088E590E00BC0862D867881F061FE53
:1016A00002C08BE201C080E2B7FC8DE290E0B6019F
:1016B00079D005C080E390E0B60174D0EA947E143E
:1016C000C8F37A94F401E70DF11D808190E0B60132
:1016D00069D07720B1F705C080E290E0B60162D012
:1016E000FA94FF20C9F754CEF60126813781C9014B
:1016F0002C96E1E1FEC0DC01CB01FC01F999FECFA3
:1017000006C0F2BDE1BDF89A319600B40D92415089
:101710005040B8F70895F999FECF92BD81BDF89A6F
:10172000992780B50895262FF999FECF92BD81BDE6
:10173000F89A019700B4021639F01FBA20BD0FB60F
:10174000F894FA9AF99A0FBE0895DC01CB0102C011
:101750002D9105D041505040D8F70895262FF99982
:10176000FECF1FBA92BD81BD20BD0FB6F894FA9A84
:10177000F99A0FBE01960895FC01059061507040E2
:101780000110D8F7809590958E0F9F1F0895FC014A
:101790006150704001900110D8F7809590958E0FA0
:1017A0009F1F08950F931F93CF93DF938C01EB013D
:1017B0008B8181FF1BC082FF0DC02E813F818C81F8
:1017C0009D812817390764F4E881F9810193F98331
:1017D000E88306C0E885F985802F0995009731F4E4
:1017E0008E819F8101969F838E8302C00FEF1FEF32
:1017F000C801DF91CF911F910F910895FA01AA2797
:10180000283051F1203181F1E8946F936E7F6E5F43
:101810007F4F8F4F9F4FAF4FB1E03ED0B4E03CD0F1
:10182000670F781F891F9A1FA11D680F791F8A1FD4
:10183000911DA11D6A0F711D811D911DA11D20D03B
:1018400009F468943F912AE0269F11243019305DF5
:101850003193DEF6CF010895462F4770405D4193E6
:10186000B3E00FD0C9F7F6CF462F4F70405D4A3333
:1018700018F0495D31FD4052419302D0A9F7EACFFB
:10188000B4E0A6959795879577956795BA95C9F72A
:1018900000976105710508959B01AC010A2E06941D
:1018A0005795479537952795BA95C9F7620F731FD6
:1018B000841F951FA01D08952F923F924F925F9213
:1018C0006F927F928F929F92AF92BF92CF92DF9250
:1018D000EF92FF920F931F93CF93DF93CDB7DEB7B5
:1018E000CA1BDB0B0FB6F894DEBF0FBECDBF099449
:1018F0002A88398848885F846E847D848C849B84A0
:10190000AA84B984C884DF80EE80FD800C811B81AD
:10191000AA81B981CE0FD11D0FB6F894DEBF0FBEDC
:0A192000CDBFED010895F894FFCF4C
:10192A005761746368646F67206572726F72203AD8
:10193A00206E6F20636F6D2021001B5B324A001BF3
:10194A005B303B3048004D3A5B25695D2C20533AA9
:10195A005B25695D2C20443A5B25695D2C204C3A55
:10196A005B25695D2C20433A5B25695D0A0D0041C0
:10197A006374696F6E203A0A0D00205B302E2E2E9A
:10198A00335D2053656C656374206D73670A0D00BF
:10199A00205B745D2045646974206D73670A0D00CD
:1019AA00205B635D20436C6561720A0D00205B73E6
:1019BA005D20536574207363726F6C6C207370655D
:1019CA0065642E2E2E0A0D00205B6C5D204C65741A
:1019DA007465722073706163696E672E2E2E0A0D0C
:1019EA0000205B645D2052657665727365206469C8
:1019FA0072656374696F6E0A0D00205B615D204336
:101A0A006861696E206D6F64650A0D00205B775D01
:101A1A00205361766520636F6E6620746F2045459A
:101A2A0050524F4D0A0D00205B625D205265616481
:101A3A0020627574746F6E2E2E2E0A0D0054797002
:101A4A006520796F7572206D6573736167652061B2
:101A5A006E64207072657373205B454E5445525D07
:101A6A0020746F2065786974203A200A0D004D654C
:101A7A0073736167652073697A652072656163684B
:101A8A00656420210A0D004D6573736167652073D3
:101A9A006176656420210A0D004D6573736167657F
:101AAA0020737769746368656420210A0D00456EA6
:101ABA00746572206120737065656420626574774D
:101ACA0065656E203020746F20392C205B454E549A
:101ADA0045525D20746F2065786974203A200A0D9A
:101AEA0000537065656420736176656420210A0D70
:101AFA00004D65737361676520636C656172656427
:101B0A0020210A0D00456E74657220636861726156
:101B1A00637465722073706163696E672028302070
:101B2A00746F2039292C205B454E5445525D207430
:101B3A006F2065786974203A200A0D004368617243
:101B4A0061637465722073706163696E6720736183
:101B5A0076656420210A0D00446972656374696FB1
:101B6A006E20737769746368656420210A0D0043E7
:101B7A006F6E66696775726174696F6E20736176DC
:101B8A00656420696E20454550524F4D20210A0D4B
:101B9A000052656164696E6720627574746F6E20A5
:101BAA0076616C756520210A0D003C2563000A0DDB
:101BBA00000A0D596F75722063686F696365203A70
:101BCA002000050100324B7D96AFC8E1F0FA050509
:101BDA0004040303030302020000320194032E07E4
:101BEA005C0E8B15E723CE479D8F6BD70000000252
:101BFA0000000000A8030000000005050404030318
:041C0A0003030202CC
:00000001FF
