:100000006AC384C383C382C381C380C37FC37EC3E7
:100010007DC393C57BC37AC379C3C2C477C376C398
:10002000AEC374C374C372C371C314C56FC36EC34C
:100030006DC36CC30404000400000204000200004D
:100040000104000100000004800000800004200082
:1000500000208004008000004004004000000400F4
:10006000400000400200400000400100400000400D
:100070000000C00000400000600000408000400020
:100080000040400040000040040040040000020026
:10009000400200000100400100000000C00000809C
:1000A00000006000002080004080000040004040D0
:1000B00000000C00000800000A0000080000090011
:1000C0000008000008008008000008002008000068
:1000D0008800000800004800000800000C00000430
:1000E00000000A00000200000900000100000800F2
:1000F00080000080080020000020880000800000B0
:100100004800004000001400001000001200001021
:10011000000011000010000010008010000010000E
:10012000201000009000001000005000001000009F
:100130001400000400001200000200001100000181
:1001400000001000800000801000200000209000BF
:10015000008000005000004000002400002000004B
:10016000220000200000210000200000200080204C
:100170000000200020200000A000002000006000FF
:100180000020000024000004000022000002000003
:1001900021000001000020008000008020002000DD
:1001A0000020A0000080000060000040000004016A
:1001B0000000010002010000010001010000010037
:1001C000000180000100000120000100800100000A
:1001D00001004001000001000401000400000201D0
:1001E0000002000001010001000000018000008009
:1001F000000120000020800100800000400100403C
:1002000000000408000008000208000008000108BF
:100210000000080000088000080000082000080016
:1002200080080000080040080000080004080004DE
:1002300000000208000200000108000100000008A0
:10024000800000800008200000208008008000005E
:10025000400800400000040200000200020200000A
:100260000200010200000200000280000200000201
:100270002000020080020000020040020000020094
:10028000040200040000020200020000010200015A
:100290000000000280000080000220000020800298
:1002A00000800000400200400000440000400000C8
:1002B000420000400000410000400000400080403B
:1002C0000000400020400000C00000400000000A84
:1002D000000008004400000400004200000200008A
:1002E000410000010000400080000080400020002C
:1002F0000020C00000800000000A0000020084000E
:10030000008000008200008000008100008000006A
:1003100080008080000080002080000000090080B4
:1003200001000003000001008400000400008200BE
:1003300000020000810000010000800080000080B9
:1003400080002000002000090000080000030000D9
:100350000200040020000020020020000020010014
:10036000200000200000A00000202001002000004C
:1003700020080020000020020020000004002004CB
:100380000000020020020000010020010000000027
:10039000A0000080200100000100200800000800EB
:1003A00020020000020004008000008002008000A3
:1003B000008001008000008030000010000010016B
:1003C00000100000100800100000100200100000D3
:1003D000040080040000020080020000010080018F
:1003E0000000300000200000100100000100100893
:1003F00000000800100200000200050000010000DB
:100400000300000100001800000800002800000898
:1004100000000801000800000808000800000802A9
:1004200000080000050000040000030000020000B6
:100430001800001000002800002000000801000043
:100440000100080800000800080200000200060081
:100450000002000008004000004010004000004082
:100460002000400000400001400000400008400023
:1004700000400002400000400600000400000800A8
:100480004008000010004010000020004020000044
:100490000001400001000008400008000002400088
:1004A00002000004400004000804000004001004DE
:1004B0000000040020040000040000050000040007
:1004C000000C0000040000060000040000044000CE
:1004D0000040080400080000100400100000200480
:1004E00000200000000500000100000C00000800D2
:1004F000000600000200000000000000005F000095
:100500000007000700147F147F14242A7F2A122377
:100510001308646236495522500005030000001C90
:100520002241000041221C00082A1C2A0808083E1B
:100530000808005030000008080808080060600043
:100540000020100804023E5149453E00427F400011
:1005500042615149462141454B311814127F102701
:10056000454545393C4A4949300171090503364939
:10057000494936064949291E0036360000005636DC
:100580000000000814224114141414144122140809
:10059000000201510906324979413E7E1111117E56
:1005A0007F494949363E414141227F4141221C7FDA
:1005B000494949417F090901013E414151327F08C2
:1005C00008087F00417F41002040413F017F08141F
:1005D00022417F404040407F0204027F7F04081098
:1005E0007F3E4141413E7F090909063E4151215E5E
:1005F0007F09192946464949493101017F01013FD7
:100600004040403F1F2040201F7F2018207F631460
:100610000814630304780403615149454300007FD3
:100620004141020408102041417F00000402010200
:1006300004404040404000010204002054545478DB
:100640007F484444383844444420384444487F3840
:1006500054545418087E090102081454543C7F086D
:1006600004047800447D40002040443D00007F1099
:10067000284400417F40007C041804787C0804046E
:100680007838444444387C14141408081414187C32
:100690007C080404084854545420043F4440203C3F
:1006A0004040207C1C2040201C3C4030403C4428E2
:1006B0001028440C5050503C4464544C44000836BC
:1006C000410000007F0000004136080008082A1C95
:1006D00008081C2A080811241FBECFEFD4E0DEBF93
:1006E000CDBF13E0A0E0B1E0E4E2F9E102C0059083
:1006F0000D92A630B107D9F714E0A6E0B3E001C02F
:100700001D92A537B107E1F77BD50AC979CC1F92B5
:100710000F920FB60F9211248F938091C600809391
:10072000120310920F0310920E038F910F900FBEC1
:100730000F901F9018951092C50083E38093C4001A
:1007400088E98093C10008959091C00095FFFCCF87
:100750008093C600089507C03091C00035FFFCCFDC
:1007600001962093C600FC0120812223A9F7089559
:100770008091C00087FFFCCF8091C60008951F9232
:100780000F920FB60F9211244F925F926F927F9249
:100790008F929F92AF92BF92CF92DF92EF92FF9291
:1007A0000F931F932F933F934F935F936F937F9379
:1007B0008F939F93AF93BF93CF93DF93EF93FF9369
:1007C000809107039091080397FD05C040E050E039
:1007D00020E030E012C0EE27FF27E81BF90BCF0125
:1007E00065E070E068D59C01CF0165E070E063D5FD
:1007F000862F972FAC0180E090E0142FA090060385
:10080000BB244AE2C42ED12C9CC060910903709194
:100810000A03412F50E04617570714F040E204C086
:100820004D5E5C4FFA014081F5E04F9FE0011124DD
:10083000C05AD0408C9DA0018D9D500D9C9D500DA7
:1008400011244C5C5F4FF90160E070E05EC037013D
:100850000A2E02C0759467940A94E2F760FE3CC0C9
:100860000DE18016910408F034C01AB87AB077B858
:1008700077B074B81BB87BB078B878B075B8F201AF
:10088000749074B832010894611C711CF301749067
:1008900077B802E0602E712C640C751CF301749023
:1008A0007AB8F3E06F2E712C640C751CF301749010
:1008B00075B8E4E06E2E712C640C751CF301749015
:1008C00078B835E0632E712C640C751CF3017490BC
:1008D0007BB8000000000AC01AB87AB077B877B0C9
:1008E00074B81BB87BB078B878B075B81196E6E0EC
:1008F000F0E04E0E5F1EA730B10509F0A8CF6F5F84
:100900007F4F465D5F4FE0E0F0E0B62FB20FB530AD
:1009100088F47E01EB0EF11CE6EFF4E0EE0EFF1E14
:100920002A01A0E0B0E0F701E490FF244B01880E1B
:10093000991E8DCF9501260F311D820F931F1F5FCA
:100940009F018D3191050CF460CF1AB88AB187B937
:1009500087B184B91BB88BB188B988B185B9FF91CB
:10096000EF91DF91CF91BF91AF919F918F917F9147
:100970006F915F914F913F912F911F910F91FF9038
:10098000EF90DF90CF90BF90AF909F908F907F902F
:100990006F905F904F900F900FBE0F901F90189523
:1009A0001F920F920FB60F9211242F933F934F93E4
:1009B0005F938F939F93EF93FF934091090350911F
:1009C0000A038091060390E00596849F9001859F1D
:1009D000300D949F300D11244091CF028091070378
:1009E00090910803442379F0019790930803809332
:1009F000070344275527421B530B841795079CF484
:100A00008DE190E00CC0019690930803809307035A
:100A10008E31910544F088279927821B930B909380
:100A2000080380930703E091CE02F0E0E053FD4F0E
:100A300080818093850010928400FF91EF919F91B7
:100A40008F915F914F913F912F910F900FBE0F901B
:100A50001F9018951F920F920FB60F9211248F932B
:100A60008091790080936D048F910F900FBE0F904D
:100A70001F90189583E193E06AE070E04AE551E049
:100A800034D6E3E1F3E003C08191882329F024E028
:100A9000ED36F207C9F745C0E3E1F3E0019000202D
:100AA000E9F73197E351F340F0930A03E093090328
:100AB00080E090E02AD68093CE02893038F089E039
:100AC0008093CE0280E090E069E027D681E090E05C
:100AD0001CD68093CF02882339F081E08093CF0227
:100AE00081E090E061E019D682E090E00ED680933C
:100AF0000603882339F081E08093060382E090E0CA
:100B000061E00BD683E090E000D680930C0388234D
:100B100099F081E080930C0383E090E061E0FDD5E3
:100B200008958AE591E0E3E1F3E0DF019C011D9285
:100B300021503040E1F7B0CF08951F920F920FB6C9
:100B40000F9211242F933F934F935F936F937F9353
:100B50008F939F93AF93BF93CF93DF93EF93FF93C5
:100B6000E0911003EE2389F180910E0390910F0321
:100B7000F0E0EE0FFF1FEC51FD4F20813181AC0101
:100B80004F5F5F4F50930F0340930E0382179307FD
:100B9000E0F0C3E1D3E08AE591E0FE019C0111920F
:100BA00021503040E1F7CE0160E071E0A8D3099018
:100BB0000020E9F72197C351D340D0930A03C09393
:100BC000090310920F0310920E03FF91EF91DF9132
:100BD000CF91BF91AF919F918F917F916F915F91D5
:100BE0004F913F912F910F900FBE0F901F9018952E
:100BF000DF93CF93CDB7DEB780910B03882339F015
:100C00009E01295F3F4F8D819E81B9019BD3CF917A
:100C1000DF9108952F923F924F925F926F927F9251
:100C20008F929F92AF92BF92CF92DF92EF92FF92FC
:100C30000F931F93DF93CF930F92CDB7DEB78091C1
:100C40000B03882369F000D08AE191E0ADB7BEB70D
:100C500012969C938E9311975DD30F900F9003C0C3
:100C60008EE290E069D31092120310E0B0E2AB2E56
:100C7000B1E0BB2EACE2CA2EA1E0DA2EF5E88F2E51
:100C8000F2E09F2EE3E96E2EE2E07E2E78EB472E17
:100C900072E0572E63E1E62E63E0F62E00D0EDB74A
:100CA000FEB7B282A182A4DF0F900F9001C0102F77
:100CB00080911203882359F00091120310921203BD
:100CC000802F90E00CD3009709F44BC08EC2809126
:100CD0007A00886480937A0080916D04982F9F57E2
:100CE000933010F401E422C0982F9959943010F4F5
:100CF00002E41CC0982F9D54953010F403E416C0F4
:100D0000982F9753943010F404E410C0982F925108
:100D1000953010F405E40AC0982F9952963010F4DB
:100D200006E404C08E5B853018F607E48FE493EC8C
:100D30000197F1F700C00000011719F0802F90E033
:100D4000FBD280917A00886480937A0080916D0450
:100D50008B3F08F4ACCF802F90E0C9D2EDD210E0E9
:100D6000A7CF8FE39DE0A3E081509040A040E1F742
:100D700000C000008091C00085FFFCCF0093C6003A
:100D80000C3609F48CC10D3698F4043609F487C189
:100D9000053638F40F3309F4C2C0033609F06AC1CE
:100DA0000BC1053609F45AC1093609F063C177C190
:100DB000033709F474C1043730F40D3651F00037AD
:100DC00009F058C1E5C0802F8657823008F052C123
:100DD00066C14091090350910A038091060390E097
:100DE0000596849F9001859F300D949F300D1124AE
:100DF00022243324221A330A809107039091080396
:100E0000019782159305C1F4AFE4B3EC1197F1F7A4
:100E100000C0000080910B03882359F000D02AE124
:100E200031E0EDB7FEB73283218374D20F900F907B
:100E300003C08EE290E080D2809112038823E1F219
:100E4000009112031092120300D0EFE2F1E0ADB76F
:100E5000BEB71296FC93EE931197CADE10920A0366
:100E6000109209038AE591E0D701FC011D923197A8
:100E7000E9F70F900F90083089F480910903909161
:100E80000A03019790930A0380930903E0910903F1
:100E9000F0910A03ED5EFC4F1082EFCF0D30F1F0C0
:100EA0008091090390910A03FC01ED5EFC4F0083E1
:100EB000019690930A03809309038091090390910E
:100EC0000A03F1E089359F0749F0809112038823D6
:100ED000E1F30091120310921203CDCF8FE39DE056
:100EE000A3E081509040A040E1F700C00000809155
:100EF000090390910A0300D000D0EDE3F1E0ADB713
:100F0000BEB71296FC93EE93119714969C938E9312
:100F1000139700D20F900F900F900F9066C100D0E2
:100F2000E2E4F1E0ADB7BEB71296FC93EE931197F1
:100F3000F1D100D000D000D0EDB7FEB7319623E656
:100F400031E0ADB7BEB712963C932E93119789E767
:100F500091E093838283AFE7B1E0B583A4832BE86C
:100F600031E037832683D6D18DB79EB706960FB66C
:100F7000F8949EBF0FBE8DBFE4E9F1E0ADB7BEB7F8
:100F80001296FC93EE931197C5D10F900F9014C158
:100F900000D000D0ECEFF1E0ADB7BEB71296FC93F5
:100FA000EE9311971496FC92EE921397B3D10F9093
:100FB0000F900F900F9000C180910B038823A9F030
:100FC0008091090390910A032DB73EB7205130401C
:100FD0000FB6F8943EBF0FBE2DBFEDB7FEB73196EA
:100FE0002FEF31E0ADB7BEB711C0809109039091EA
:100FF0000A03ADB7BEB750970FB6F894BEBF0FBE89
:10100000ADBFEDB7FEB731962CE532E012963C93BA
:101010002E931197938382838AE591E0958384834D
:101020008091CE02868317828091CF0280871186BD
:10103000809106038287138680910C03848715862E
:10104000809110038687178665D18DB79EB740962D
:101050000FB6F8949EBF0FBE8DBFAEC0409109037E
:1010600050910A034F5F5F4F83E193E06AE070E0C5
:1010700066D3A2C000D000D0EDB7FEB7319621E70D
:1010800032E0ADB7BEB712963C932E931197028310
:101090001382AEDD0F900F900F900F90FFCD00D018
:1010A000ADB7BEB712969C928E921197A1DD0F90AC
:1010B0000F90809112038823E1F320901203109285
:1010C000120300D0EDB7FEB77282618291DD0F90FE
:1010D0000F90809112038823E1F380911203109204
:1010E00012038D30B1F7622D60536A3058F000D092
:1010F000E8EAF2E0ADB7BEB71296FC93EE93119713
:1011000077DD6DC000D000D000D0EDB7FEB73196CE
:10111000ADB7BEB712965C924E92119702831382BE
:1011200024821582698364DDEDB7FEB736960FB66B
:10113000F894FEBF0FBEEDBF69810C36D1F00D36BD
:1011400030F4043681F0093609F04FC028C0063764
:10115000C1F1073799F0033709F047C06093CE0219
:1011600080E090E004C06093CF0281E090E0D5D2AF
:1011700023C06093060382E090E0F9CF60931003F0
:10118000662351F010920F0310920E0380917000AD
:1011900081608093700010C0109270000DC0609349
:1011A0000C0383E090E0B9D280910C03882311F006
:1011B00083E001C084E085BD80910B03882391F01A
:1011C00004C060930B03662369F000D0EAE1F1E00C
:1011D000ADB7BEB71296FC93EE9311979BD00F90CC
:1011E0000F9003C08EE290E0A7D000D0ADB7BEB79D
:1011F0001296DC92CE921197FBDC0F900F904ECDA1
:101200001AB88AB187B987B184B91BB88BB188B9CC
:1012100088B185B9EEE6F0E080818160808314BCFE
:1012200085B5836085BD16BCEFE6F0E08081816006
:10123000808310928000E1E8F0E080818360808309
:10124000109282001092850010928400E0E7F0E096
:10125000808180831092B000E1EBF0E080818760B4
:1012600080831092B20086E680937C00EAE7F0E08B
:101270008081886880831092C50083E38093C400D6
:1012800088E98093C10088EF92E090937204809384
:1012900071048AE591E0E3E1F3E0DF019C011D9236
:1012A00021503040E1F710921103E4DB7894B2DC76
:1012B00080E090E00895AA1BBB1B51E107C0AA1F64
:1012C000BB1FA617B70710F0A61BB70B881F991FE7
:1012D0005A95A9F780959095BC01CD01089591117B
:1012E00045C2803219F089508550D0F70895911188
:1012F000089581548A5108F4805E855A0895FB014F
:10130000DC010D900020E9F7119701900D9200206B
:10131000E1F70895A0E0B0E0EFE8F9E0DAC2FE01FD
:101320003596619171918091710490917204AF0131
:1013300012D02096E2E0E9C26091710470917204CB
:101340002ED208959C01AB0180917104909172049A
:10135000B90101D00895ACE0B0E0E0EBF9E0AAC239
:101360006C012B018A01FC0117821682838181FDA9
:1013700003C02FEF3FEFB5C14E010894811C911CB3
:101380006FE3362EF6019381F20193FD859193FF71
:1013900081912F01882309F4A1C1853239F493FD8D
:1013A000859193FF81912F01853221F490E0B60160
:1013B000F6D1E8CFEE24FF2420E02032B0F48B32C7
:1013C00069F08C3228F4803251F0833271F40BC012
:1013D0008D3239F0803349F421602CC022602460C2
:1013E00029C0286027C0206125C027FD2CC0382FC8
:1013F00030533A3098F426FF08C08E2D880FE82E1F
:10140000EE0CEE0CE80EE30E15C08F2D880FF82EB3
:10141000FF0CFF0CF80EF30E20620CC08E3221F48C
:1014200026FD5CC1206406C08C3611F4206802C021
:10143000883649F4F20193FD859193FF81912F0144
:10144000882309F0BACF982F9554933018F0905212
:10145000933020F40C5F1F4F39820DC0833631F07A
:10146000833771F0833509F054C01DC0F8018081C5
:1014700089830E5F1F4F540151E0652E712C11C0FE
:10148000F801A080B18026FD03C06FEF7FEF02C09E
:101490006E2D70E00E5F1F4FC5012C8775D13C018A
:1014A0002C852F7712C0F801A080B18026FD03C0E3
:1014B0006FEF7FEF02C06E2D70E00E5F1F4FC50112
:1014C0002C8757D13C012C85206823FF08C01DC004
:1014D00080E290E0B6012C8762D1FA942C858F2DA2
:1014E00090E068167906A0F310C0F50127FD8591FC
:1014F00027FF81915F0190E0B6012C8750D12C85A8
:10150000F110FA940894610871086114710469F784
:10151000E2C0843611F0893649F527FF08C0F8018A
:1015200060817181828193810C5F1F4F0AC0F80135
:1015300040815181BA01882777FD8095982F0E5FF1
:101540001F4F4FE6B42EB22297FF09C090958095A9
:10155000709561957F4F8F4F9F4FF0E8BF2AA40190
:101560002AE030E048D1782E781842C0853731F42F
:101570003FEEB32EB2222AE030E023C099EFB92E1D
:10158000B2228F3661F0803720F4883509F0A6C08A
:1015900012C0803739F0883709F0A0C005C028E0B4
:1015A00030E00FC020E1B22AB4FE02C084E0B82AC5
:1015B00020E130E006C0B4FE02C0E6E0BE2A20E131
:1015C00032E0B7FE08C0F8016081718182819381A9
:1015D0000C5F1F4F07C0F8016081718180E090E0CF
:1015E0000E5F1F4FA40107D1782E7818FFE7BF22A6
:1015F000B6FE0BC02EEFB2227E1438F4B4FE07C044
:10160000B2FC05C08FEEB82202C0A72C01C0AE2CE0
:101610008B2DB4FE0DC0FE01E70DF11D90819033BE
:1016200019F4E9EEBE2207C0A394B2FE04C002C0C2
:10163000867809F0A3946B2CB3FC13C0B0FE0EC0E7
:10164000AF1410F0E72C0AC0E72CEF0CEA18AF2C0F
:1016500005C080E290E0B601A2D0A394AF14C8F315
:1016600004C0AF1410F4FA1801C0FF2464FE0EC0C9
:1016700080E390E0B60193D062FE1BC061FC03C022
:1016800088E790E00EC088E590E00BC0862D867854
:1016900081F061FE02C08BE201C080E2B7FC8DE206
:1016A00090E0B6017CD005C080E390E0B60177D031
:1016B000EA947E14C8F37A94F401E70DF11D808159
:1016C00090E0B6016CD07720B1F705C080E290E0E1
:1016D000B60165D0FA94FF20C9F754CEF6012681F1
:1016E0003781C9012C96E1E101C1DC01CB01FC018C
:1016F000F999FECF06C0F2BDE1BDF89A319600B46B
:101700000D9241505040B8F70895F999FECF92BD1F
:1017100081BDF89A992780B50895262FF999FECFB3
:1017200092BD81BDF89A019700B4021639F01FBA34
:1017300020BD0FB6F894FA9AF99A0FBE0895DC010D
:10174000CB0102C02D9105D041505040D8F70895EB
:10175000262FF999FECF1FBA92BD81BD20BD0FB6CD
:10176000F894FA9AF99A0FBE019608959927882756
:101770000895FC010590615070400110D8F78095E4
:1017800090958E0F9F1F0895FC016150704001904D
:101790000110D8F7809590958E0F9F1F08950F9395
:1017A0001F93CF93DF938C01EB018B8181FF1BC0D3
:1017B00082FF0DC02E813F818C819D8128173907C2
:1017C00064F4E881F9810193F983E88306C0E88530
:1017D000F985802F0995009731F48E819F810196BC
:1017E0009F838E8302C00FEF1FEFC801DF91CF915F
:1017F0001F910F910895FA01AA27283051F1203145
:1018000081F1E8946F936E7F6E5F7F4F8F4F9F4F94
:10181000AF4FB1E03ED0B4E03CD0670F781F891FD6
:101820009A1FA11D680F791F8A1F911DA11D6A0FA4
:10183000711D811D911DA11D20D009F468943F9157
:101840002AE0269F11243019305D3193DEF6CF0156
:101850000895462F4770405D4193B3E00FD0C9F71C
:10186000F6CF462F4F70405D4A3318F0495D31FD89
:101870004052419302D0A9F7EACFB4E0A6959795DC
:10188000879577956795BA95C9F7009761057105B2
:1018900008959B01AC010A2E0694579547953795FC
:1018A0002795BA95C9F7620F731F841F951FA01D56
:1018B00008952F923F924F925F926F927F928F92F4
:1018C0009F92AF92BF92CF92DF92EF92FF920F93CF
:1018D0001F93CF93DF93CDB7DEB7CA1BDB0B0FB6D9
:1018E000F894DEBF0FBECDBF09942A883988488896
:1018F0005F846E847D848C849B84AA84B984C8842C
:10190000DF80EE80FD800C811B81AA81B981CE0F22
:10191000D11D0FB6F894DEBF0FBECDBFED01089507
:04192000F894FFCF69
:101924005761746368646F67206572726F72203ADE
:10193400206E6F20636F6D2021005B41434B5D007F
:101944005761697420636D642E2E2E000A0D002CDD
:1019540020736574206D7367203A0A0D00253033B7
:1019640069000A0D7777772E6469676974616C730F
:1019740070697269742E6F7267202D206875676FA5
:101984000A0D00415652204C6962632025732C20B5
:1019940025732C2025730A0D00312E372E30004D6F
:1019A400617920203220323031310031373A3332FC
:1019B4003A3536006D286D7367292C2073287370AF
:1019C400656564292C206428646972656374696F91
:1019D4006E292C206C2873706163696E67292C2032
:1019E40065286D7367203E20656570726F6D292CC4
:1019F4002070287072696E74292C206328636F6EBE
:101A040066292C2077287761746368646F67292CB2
:101A1400207628766572626F736529002573000A43
:101A24000D4D73672073697A653A20256920286D06
:101A340061783A202575292C2053706565643A2015
:101A440025692C20446972656374696F6E3A202598
:101A5400692C2053706163696E673A2025692C20D4
:101A6400496E74656E736974793A2025692C205720
:101A740061746368646F673A2025690025697C2571
:101A8400757C25697C25697C25697C25697C2569AB
:101A9400002C20756E6B6E6F7720636D6420256358
:101AA40020210A0D002C2077616974206172672E51
:101AB4002E2E002C20776169742076616C69646134
:101AC40074696F6E2E2E2E00417267206E6F742023
:101AD40076616C69642021002C2072756E202725A4
:101AE40063272C20617267202725632720000501C6
:101AF40000324B7D96AFC8E1F0FA050504040303F8
:101B0400030302020000320194032E075C0E8B15BE
:101B1400E723CE479D8F6BD7000000020000000032
:061B2400A4030000000014
:00000001FF
